{
  "contractName": "FaucetV2",
  "abi": [
    {
      "inputs": [],
      "stateMutability": "nonpayable",
      "type": "constructor"
    },
    {
      "inputs": [
        {
          "internalType": "uint256",
          "name": "",
          "type": "uint256"
        }
      ],
      "name": "funders",
      "outputs": [
        {
          "internalType": "address",
          "name": "",
          "type": "address"
        }
      ],
      "stateMutability": "view",
      "type": "function"
    },
    {
      "inputs": [],
      "name": "owner",
      "outputs": [
        {
          "internalType": "address",
          "name": "",
          "type": "address"
        }
      ],
      "stateMutability": "view",
      "type": "function"
    },
    {
      "stateMutability": "payable",
      "type": "receive"
    },
    {
      "inputs": [],
      "name": "emitLog",
      "outputs": [
        {
          "internalType": "bytes32",
          "name": "",
          "type": "bytes32"
        }
      ],
      "stateMutability": "pure",
      "type": "function"
    },
    {
      "inputs": [],
      "name": "addFunds",
      "outputs": [],
      "stateMutability": "payable",
      "type": "function"
    },
    {
      "inputs": [],
      "name": "getAllFunders",
      "outputs": [
        {
          "internalType": "address[]",
          "name": "",
          "type": "address[]"
        }
      ],
      "stateMutability": "view",
      "type": "function"
    },
    {
      "inputs": [
        {
          "internalType": "uint8",
          "name": "funderIndex",
          "type": "uint8"
        }
      ],
      "name": "getFunderAt",
      "outputs": [
        {
          "internalType": "address",
          "name": "",
          "type": "address"
        }
      ],
      "stateMutability": "view",
      "type": "function"
    },
    {
      "inputs": [
        {
          "internalType": "uint256",
          "name": "withdrawAmount",
          "type": "uint256"
        }
      ],
      "name": "withdraw",
      "outputs": [],
      "stateMutability": "nonpayable",
      "type": "function"
    }
  ],
  "bytecode": "0x608060405234801561001057600080fd5b5033600160006101000a81548173ffffffffffffffffffffffffffffffffffffffff021916908373ffffffffffffffffffffffffffffffffffffffff16021790555061073e806100616000396000f3fe6080604052600436106100745760003560e01c8063a26759cb1161004e578063a26759cb146100ff578063dc0d3dff14610109578063f42c13bf14610146578063fbb8eb9f146101715761007b565b80632e1a7d4d146100805780636fbbb55d146100a95780638da5cb5b146100d45761007b565b3661007b57005b600080fd5b34801561008c57600080fd5b506100a760048036038101906100a29190610433565b6101ae565b005b3480156100b557600080fd5b506100be610245565b6040516100cb9190610550565b60405180910390f35b3480156100e057600080fd5b506100e96102d3565b6040516100f69190610581565b60405180910390f35b6101076102f9565b005b34801561011557600080fd5b50610130600480360381019061012b9190610433565b61035e565b60405161013d9190610581565b60405180910390f35b34801561015257600080fd5b5061015b61039d565b60405161016891906105b5565b60405180910390f35b34801561017d57600080fd5b5061019860048036038101906101939190610609565b6103c5565b6040516101a59190610581565b60405180910390f35b80670de0b6b3a76400008111156101fa576040517f08c379a00000000000000000000000000000000000000000000000000000000081526004016101f1906106b9565b60405180910390fd5b3373ffffffffffffffffffffffffffffffffffffffff166108fc839081150290604051600060405180830381858888f19350505050158015610240573d6000803e3d6000fd5b505050565b606060008054806020026020016040519081016040528092919081815260200182805480156102c957602002820191906000526020600020905b8160009054906101000a900473ffffffffffffffffffffffffffffffffffffffff1673ffffffffffffffffffffffffffffffffffffffff168152602001906001019080831161027f575b5050505050905090565b600160009054906101000a900473ffffffffffffffffffffffffffffffffffffffff1681565b6000339080600181540180825580915050600190039060005260206000200160009091909190916101000a81548173ffffffffffffffffffffffffffffffffffffffff021916908373ffffffffffffffffffffffffffffffffffffffff160217905550565b6000818154811061036e57600080fd5b906000526020600020016000915054906101000a900473ffffffffffffffffffffffffffffffffffffffff1681565b60007f48656c6c6f20576f726c64000000000000000000000000000000000000000000905090565b6000806103d0610245565b9050808360ff16815181106103e8576103e76106d9565b5b6020026020010151915050919050565b600080fd5b6000819050919050565b610410816103fd565b811461041b57600080fd5b50565b60008135905061042d81610407565b92915050565b600060208284031215610449576104486103f8565b5b60006104578482850161041e565b91505092915050565b600081519050919050565b600082825260208201905092915050565b6000819050602082019050919050565b600073ffffffffffffffffffffffffffffffffffffffff82169050919050565b60006104b78261048c565b9050919050565b6104c7816104ac565b82525050565b60006104d983836104be565b60208301905092915050565b6000602082019050919050565b60006104fd82610460565b610507818561046b565b93506105128361047c565b8060005b8381101561054357815161052a88826104cd565b9750610535836104e5565b925050600181019050610516565b5085935050505092915050565b6000602082019050818103600083015261056a81846104f2565b905092915050565b61057b816104ac565b82525050565b60006020820190506105966000830184610572565b92915050565b6000819050919050565b6105af8161059c565b82525050565b60006020820190506105ca60008301846105a6565b92915050565b600060ff82169050919050565b6105e6816105d0565b81146105f157600080fd5b50565b600081359050610603816105dd565b92915050565b60006020828403121561061f5761061e6103f8565b5b600061062d848285016105f4565b91505092915050565b600082825260208201905092915050565b7f43616e6e6f74207769746864726177206d6f7265207468616e20302e3120657460008201527f6865720000000000000000000000000000000000000000000000000000000000602082015250565b60006106a3602383610636565b91506106ae82610647565b604082019050919050565b600060208201905081810360008301526106d281610696565b9050919050565b7f4e487b7100000000000000000000000000000000000000000000000000000000600052603260045260246000fdfea26469706673582212209e8722b546cef68f2a8535f069ee28238b4bcecc3042c7de4298ceefd67eda0864736f6c63430008130033",
  "immutableReferences": {},
  "source": "// SPDX-License-Identifier: MIT\npragma solidity >=0.4.22 <0.9.0;\n\nimport \"./Logger.sol\";\n\n/*\n * Difference from public and external functions, both are almost equal, we can call those functions\n * outside the contract and use it, but we can't call `external` (A) function inside other (B) `external` function body\n * to make it properly work we need move from (A) `external` to (A) `public`, then we will be able to call\n * (A) function within (B) function scope.\n *\n * - external: call only outside the contract\n * - public: call inside and outside the contract\n */\ncontract FaucetV2 is Logger {\n\n  /*\n   * Automatic getters are created for `public` variables\n   *\n   * Variable types private, internal, public:\n   *  - private: accessible only inside the smart contract\n   *  - internal: accessible inside the smart contract and also derived smart contracts\n   *  - public: accessible from everywhere\n   */\n  address[] public funders;\n\n  // Owner state variable\n  address public owner;\n\n  /*\n   * This method is called when you don't specify the function name to call\n   * External functions are part of the contract interface which means they can be called\n   * via other contracts or other transactions.\n   */\n  receive() external payable { }\n\n  // That function is overriding the definition that comes from `Logger.sol` abstract contract\n  function emitLog() public pure override returns(bytes32) {\n    return \"Hello World\";\n  }\n\n  // It is called on the first time the contract is created\n  constructor() {\n    owner = msg.sender;\n  }\n\n  /* Modifiers are require validators, which can be attached to contract functions\n   * to make the validation process more smooth and simple, reusing the validation process\n   * over all function which need it.\n   */\n  modifier limitWithdraw(uint withdrawAmount) {\n    require(\n      withdrawAmount <= 1000000000000000000,\n      \"Cannot withdraw more than 0.1 ether\"\n    );\n\n    // This underscore points to the rest of the code which this modifier is attached to\n    _;\n  }\n\n  /*\n   * We can call this function from console, using web3 instance and from JSON RPC method call\n   */\n  function addFunds() external payable {\n    funders.push(msg.sender);\n  }\n\n  /*\n   * We have two kind of read-only call, which means no gas function:\n   *   view - it indicates that the function will not alter the storage state in any way\n   *   pure - even more strict, indicating that it won't even read storage state\n   */\n  function getAllFunders() public view returns (address[] memory) {\n    return funders;\n  }\n\n  function getFunderAt(uint8 funderIndex) external view returns (address) {\n    address[] memory _funder = getAllFunders();\n    return _funder[funderIndex];\n  }\n\n  // Another way to use the `require` validation while we are reusing it \n  function withdraw(uint withdrawAmount) external limitWithdraw(withdrawAmount) {\n    // Require a condition to be true, if it is not `true` an exception will be thrown and the code interrupted\n    // require(withdrawAmount <= 1000000000000000000, \"Cannot withdraw more than 0.1 ether\");\n\n    payable(msg.sender).transfer(withdrawAmount);\n  }\n\n  /* function demo() external pure returns (string memory output) {\n    string memory _nothing = \"This is a demo\";\n\n    // We can run `assembly` code inside our smartcontracts, ordinary contracts will not need it\n    // but we can use it for complex situations.\n    assembly {\n      output := mload(0x90)\n    }\n  }*/\n}",
  "sourcePath": "/Users/rborges/Desktop/blockchain/eth.faucet/contracts/Faucet-v2.sol",
  "compiler": {
    "name": "solc",
    "version": "0.8.19+commit.7dd6d404.Emscripten.clang"
  },
  "schemaVersion": "3.4.13",
  "updatedAt": "2023-03-27T18:22:23.221Z",
  "devdoc": {
    "kind": "dev",
    "methods": {},
    "version": 1
  },
  "userdoc": {
    "kind": "user",
    "methods": {},
    "version": 1
  }
}