{
  "contractName": "Faucet",
  "abi": [
    {
      "inputs": [],
      "name": "owner",
      "outputs": [
        {
          "internalType": "address",
          "name": "",
          "type": "address"
        }
      ],
      "stateMutability": "view",
      "type": "function",
      "constant": true
    },
    {
      "inputs": [],
      "name": "totalOfFunders",
      "outputs": [
        {
          "internalType": "uint256",
          "name": "",
          "type": "uint256"
        }
      ],
      "stateMutability": "view",
      "type": "function",
      "constant": true
    },
    {
      "stateMutability": "payable",
      "type": "receive",
      "payable": true
    },
    {
      "inputs": [],
      "name": "emitLog",
      "outputs": [
        {
          "internalType": "bytes32",
          "name": "",
          "type": "bytes32"
        }
      ],
      "stateMutability": "pure",
      "type": "function",
      "constant": true
    },
    {
      "inputs": [],
      "name": "addFunds",
      "outputs": [],
      "stateMutability": "payable",
      "type": "function",
      "payable": true
    },
    {
      "inputs": [
        {
          "internalType": "uint256",
          "name": "withdrawAmount",
          "type": "uint256"
        }
      ],
      "name": "withdraw",
      "outputs": [],
      "stateMutability": "nonpayable",
      "type": "function"
    },
    {
      "inputs": [],
      "name": "getAllFunders",
      "outputs": [
        {
          "internalType": "address[]",
          "name": "",
          "type": "address[]"
        }
      ],
      "stateMutability": "view",
      "type": "function",
      "constant": true
    },
    {
      "inputs": [
        {
          "internalType": "uint8",
          "name": "funderIndex",
          "type": "uint8"
        }
      ],
      "name": "getFunderAt",
      "outputs": [
        {
          "internalType": "address",
          "name": "",
          "type": "address"
        }
      ],
      "stateMutability": "view",
      "type": "function",
      "constant": true
    }
  ],
  "bytecode": "0x608060405234801561001057600080fd5b50336000806101000a81548173ffffffffffffffffffffffffffffffffffffffff021916908373ffffffffffffffffffffffffffffffffffffffff1602179055506108f5806100606000396000f3fe6080604052600436106100745760003560e01c80638da5cb5b1161004e5780638da5cb5b146100ff578063a26759cb1461012a578063f42c13bf14610134578063fbb8eb9f1461015f5761007b565b80632e1a7d4d146100805780635f5c8dd9146100a95780636fbbb55d146100d45761007b565b3661007b57005b600080fd5b34801561008c57600080fd5b506100a760048036038101906100a2919061051a565b61019c565b005b3480156100b557600080fd5b506100be610233565b6040516100cb9190610556565b60405180910390f35b3480156100e057600080fd5b506100e9610239565b6040516100f69190610661565b60405180910390f35b34801561010b57600080fd5b50610114610333565b6040516101219190610692565b60405180910390f35b610132610357565b005b34801561014057600080fd5b50610149610477565b60405161015691906106c6565b60405180910390f35b34801561016b57600080fd5b506101866004803603810190610181919061071a565b61049f565b6040516101939190610692565b60405180910390f35b80670de0b6b3a76400008111156101e8576040517f08c379a00000000000000000000000000000000000000000000000000000000081526004016101df906107ca565b60405180910390fd5b3373ffffffffffffffffffffffffffffffffffffffff166108fc839081150290604051600060405180830381858888f1935050505015801561022e573d6000803e3d6000fd5b505050565b60015481565b6060600060015467ffffffffffffffff811115610259576102586107ea565b5b6040519080825280602002602001820160405280156102875781602001602082028036833780820191505090505b50905060005b60015481101561032b576003600082815260200190815260200160002060009054906101000a900473ffffffffffffffffffffffffffffffffffffffff168282815181106102de576102dd610819565b5b602002602001019073ffffffffffffffffffffffffffffffffffffffff16908173ffffffffffffffffffffffffffffffffffffffff1681525050808061032390610877565b91505061028d565b508091505090565b60008054906101000a900473ffffffffffffffffffffffffffffffffffffffff1681565b6000339050600260008273ffffffffffffffffffffffffffffffffffffffff1673ffffffffffffffffffffffffffffffffffffffff16815260200190815260200160002060009054906101000a900460ff16610474576000600160008154809291906103c290610877565b9190505590506001600260008473ffffffffffffffffffffffffffffffffffffffff1673ffffffffffffffffffffffffffffffffffffffff16815260200190815260200160002060006101000a81548160ff021916908315150217905550816003600083815260200190815260200160002060006101000a81548173ffffffffffffffffffffffffffffffffffffffff021916908373ffffffffffffffffffffffffffffffffffffffff160217905550505b50565b60007f48656c6c6f20576f726c64000000000000000000000000000000000000000000905090565b6000600360008360ff16815260200190815260200160002060009054906101000a900473ffffffffffffffffffffffffffffffffffffffff169050919050565b600080fd5b6000819050919050565b6104f7816104e4565b811461050257600080fd5b50565b600081359050610514816104ee565b92915050565b6000602082840312156105305761052f6104df565b5b600061053e84828501610505565b91505092915050565b610550816104e4565b82525050565b600060208201905061056b6000830184610547565b92915050565b600081519050919050565b600082825260208201905092915050565b6000819050602082019050919050565b600073ffffffffffffffffffffffffffffffffffffffff82169050919050565b60006105c88261059d565b9050919050565b6105d8816105bd565b82525050565b60006105ea83836105cf565b60208301905092915050565b6000602082019050919050565b600061060e82610571565b610618818561057c565b93506106238361058d565b8060005b8381101561065457815161063b88826105de565b9750610646836105f6565b925050600181019050610627565b5085935050505092915050565b6000602082019050818103600083015261067b8184610603565b905092915050565b61068c816105bd565b82525050565b60006020820190506106a76000830184610683565b92915050565b6000819050919050565b6106c0816106ad565b82525050565b60006020820190506106db60008301846106b7565b92915050565b600060ff82169050919050565b6106f7816106e1565b811461070257600080fd5b50565b600081359050610714816106ee565b92915050565b6000602082840312156107305761072f6104df565b5b600061073e84828501610705565b91505092915050565b600082825260208201905092915050565b7f43616e6e6f74207769746864726177206d6f7265207468616e20302e3120657460008201527f6865720000000000000000000000000000000000000000000000000000000000602082015250565b60006107b4602383610747565b91506107bf82610758565b604082019050919050565b600060208201905081810360008301526107e3816107a7565b9050919050565b7f4e487b7100000000000000000000000000000000000000000000000000000000600052604160045260246000fd5b7f4e487b7100000000000000000000000000000000000000000000000000000000600052603260045260246000fd5b7f4e487b7100000000000000000000000000000000000000000000000000000000600052601160045260246000fd5b6000610882826104e4565b91507fffffffffffffffffffffffffffffffffffffffffffffffffffffffffffffffff82036108b4576108b3610848565b5b60018201905091905056fea26469706673582212208f50b0e8d07eb94c5cf136ad8b80d0f3518bfa6ba656348b7d0070f88d1668e064736f6c63430008130033",
  "immutableReferences": {},
  "source": "// SPDX-License-Identifier: MIT\npragma solidity >=0.4.22 <0.9.0;\n\nimport \"./Owned.sol\";\nimport \"./Logger.sol\";\nimport \"./IFaucet.sol\";\n\ncontract Faucet is Owned, Logger, IFaucet {\n\n  uint public totalOfFunders;\n\n  mapping(address => bool) private funders;\n  mapping(uint => address) private lutFunders;\n\n  modifier limitWithdraw(uint withdrawAmount) {\n    require(\n      withdrawAmount <= 1000000000000000000,\n      \"Cannot withdraw more than 0.1 ether\"\n    );\n\n    _;\n  }\n\n  receive() external payable { }\n\n  function emitLog() public pure override returns(bytes32) {\n    return \"Hello World\";\n  }\n\n  function addFunds() external override payable {\n    address funder = msg.sender;\n\n    if(!funders[funder]) {\n      uint index = totalOfFunders++;\n      funders[funder] = true;\n      lutFunders[index] = funder;\n    }\n  }\n\n  function withdraw(uint withdrawAmount) override external limitWithdraw(withdrawAmount) {\n    // require(withdrawAmount <= 100000000000000000, \"Cannot withdraw more than 0.1 ether\");\n\n    payable(msg.sender).transfer(withdrawAmount);\n  }\n\n  function getAllFunders() external view returns (address[] memory) {\n    address[] memory _funders = new address[](totalOfFunders);\n\n    for (uint i = 0; i < totalOfFunders; i++) {\n      _funders[i] = lutFunders[i];\n    }\n\n    return _funders;\n  }\n\n  function getFunderAt(uint8 funderIndex) external view returns (address) {\n    return lutFunders[funderIndex];\n  }\n}",
  "sourcePath": "/Users/rborges/Desktop/blockchain/eth.faucet/contracts/Faucet.sol",
  "compiler": {
    "name": "solc",
    "version": "0.8.19+commit.7dd6d404.Emscripten.clang"
  },
  "schemaVersion": "3.4.13",
  "updatedAt": "2023-03-28T15:42:29.482Z",
  "networkType": "ethereum",
  "devdoc": {
    "kind": "dev",
    "methods": {},
    "version": 1
  },
  "userdoc": {
    "kind": "user",
    "methods": {},
    "version": 1
  }
}